{
  "contractName": "CertificateList",
  "abi": [
    {
      "inputs": [],
      "payable": false,
      "stateMutability": "nonpayable",
      "type": "constructor"
    },
    {
      "constant": true,
      "inputs": [],
      "name": "certificateCount",
      "outputs": [
        {
          "internalType": "uint256",
          "name": "",
          "type": "uint256"
        }
      ],
      "payable": false,
      "stateMutability": "view",
      "type": "function"
    },
    {
      "constant": true,
      "inputs": [
        {
          "internalType": "uint256",
          "name": "",
          "type": "uint256"
        }
      ],
      "name": "certificates",
      "outputs": [
        {
          "internalType": "string",
          "name": "name",
          "type": "string"
        },
        {
          "internalType": "string",
          "name": "branch",
          "type": "string"
        },
        {
          "internalType": "string",
          "name": "grade",
          "type": "string"
        },
        {
          "internalType": "string",
          "name": "college",
          "type": "string"
        }
      ],
      "payable": false,
      "stateMutability": "view",
      "type": "function"
    },
    {
      "constant": false,
      "inputs": [
        {
          "internalType": "string",
          "name": "_name",
          "type": "string"
        },
        {
          "internalType": "string",
          "name": "_branch",
          "type": "string"
        },
        {
          "internalType": "string",
          "name": "_college",
          "type": "string"
        },
        {
          "internalType": "string",
          "name": "_grade",
          "type": "string"
        }
      ],
      "name": "createCertificate",
      "outputs": [],
      "payable": false,
      "stateMutability": "nonpayable",
      "type": "function"
    }
  ],
  "bytecode": "0x608060405234801561001057600080fd5b50600280546001600160a01b03191633179055604080518082018252600681526547656f72676560d01b602080830191909152825180840184528181527f42616368656c6f72206f6620436f6d707574657220456e67696e656572696e6781830152835160608101909452602f8085526100cf949192610afe9083013960408051808201909152601c81527f466972737420436c61737320576974682044697374696e6374696f6e0000000060208201526001600160e01b036100d416565b610267565b6002546001600160a01b03163314610125576040805162461bcd60e51b815260206004820152600f60248201526e2737ba1030baba3437b934bd32b21760891b604482015290519081900360640190fd5b6001805481019081905560408051608081018252868152602080820187905281830185905260608201869052600093845283815291909220825180519192610172928492909101906101cc565b50602082810151805161018b92600185019201906101cc565b50604082015180516101a79160028401916020909101906101cc565b50606082015180516101c39160038401916020909101906101cc565b50505050505050565b828054600181600116156101000203166002900490600052602060002090601f016020900481019282601f1061020d57805160ff191683800117855561023a565b8280016001018555821561023a579182015b8281111561023a57825182559160200191906001019061021f565b5061024692915061024a565b5090565b61026491905b808211156102465760008155600101610250565b90565b610888806102766000396000f3fe608060405234801561001057600080fd5b50600436106100415760003560e01c80632a2d8fa71461004657806352d7b89c1461027b578063663b3e2214610295575b600080fd5b6102796004803603608081101561005c57600080fd5b810190602081018135600160201b81111561007657600080fd5b82018360208201111561008857600080fd5b803590602001918460018302840111600160201b831117156100a957600080fd5b91908080601f0160208091040260200160405190810160405280939291908181526020018383808284376000920191909152509295949360208101935035915050600160201b8111156100fb57600080fd5b82018360208201111561010d57600080fd5b803590602001918460018302840111600160201b8311171561012e57600080fd5b91908080601f0160208091040260200160405190810160405280939291908181526020018383808284376000920191909152509295949360208101935035915050600160201b81111561018057600080fd5b82018360208201111561019257600080fd5b803590602001918460018302840111600160201b831117156101b357600080fd5b91908080601f0160208091040260200160405190810160405280939291908181526020018383808284376000920191909152509295949360208101935035915050600160201b81111561020557600080fd5b82018360208201111561021757600080fd5b803590602001918460018302840111600160201b8311171561023857600080fd5b91908080601f01602080910402602001604051908101604052809392919081815260200183838082843760009201919091525092955061045c945050505050565b005b610283610554565b60408051918252519081900360200190f35b6102b2600480360360208110156102ab57600080fd5b503561055a565b6040518080602001806020018060200180602001858103855289818151815260200191508051906020019080838360005b838110156102fb5781810151838201526020016102e3565b50505050905090810190601f1680156103285780820380516001836020036101000a031916815260200191505b5085810384528851815288516020918201918a019080838360005b8381101561035b578181015183820152602001610343565b50505050905090810190601f1680156103885780820380516001836020036101000a031916815260200191505b50858103835287518152875160209182019189019080838360005b838110156103bb5781810151838201526020016103a3565b50505050905090810190601f1680156103e85780820380516001836020036101000a031916815260200191505b50858103825286518152865160209182019188019080838360005b8381101561041b578181015183820152602001610403565b50505050905090810190601f1680156104485780820380516001836020036101000a031916815260200191505b509850505050505050505060405180910390f35b6002546001600160a01b031633146104ad576040805162461bcd60e51b815260206004820152600f60248201526e2737ba1030baba3437b934bd32b21760891b604482015290519081900360640190fd5b60018054810190819055604080516080810182528681526020808201879052818301859052606082018690526000938452838152919092208251805191926104fa928492909101906107b8565b50602082810151805161051392600185019201906107b8565b506040820151805161052f9160028401916020909101906107b8565b506060820151805161054b9160038401916020909101906107b8565b50505050505050565b60015481565b6000602081815291815260409081902080548251601f6002600019610100600186161502019093169290920491820185900485028101850190935280835290928391908301828280156105ee5780601f106105c3576101008083540402835291602001916105ee565b820191906000526020600020905b8154815290600101906020018083116105d157829003601f168201915b505050505090806001018054600181600116156101000203166002900480601f01602080910402602001604051908101604052809291908181526020018280546001816001161561010002031660029004801561068c5780601f106106615761010080835404028352916020019161068c565b820191906000526020600020905b81548152906001019060200180831161066f57829003601f168201915b50505060028085018054604080516020601f600019610100600187161502019094169590950492830185900485028101850190915281815295969594509092509083018282801561071e5780601f106106f35761010080835404028352916020019161071e565b820191906000526020600020905b81548152906001019060200180831161070157829003601f168201915b5050505060038301805460408051602060026001851615610100026000190190941693909304601f81018490048402820184019092528181529495949350908301828280156107ae5780601f10610783576101008083540402835291602001916107ae565b820191906000526020600020905b81548152906001019060200180831161079157829003601f168201915b5050505050905084565b828054600181600116156101000203166002900490600052602060002090601f016020900481019282601f106107f957805160ff1916838001178555610826565b82800160010185558215610826579182015b8281111561082657825182559160200191906001019061080b565b50610832929150610836565b5090565b61085091905b80821115610832576000815560010161083c565b9056fea265627a7a723158203b21f06a61a75c2b014c40ed13ea52e685cbd5d88492f2f6da3780b3aa3756b064736f6c6343000510003244722e2042616261736168656220416d6265646b617220546563686e6f6c6f676963616c20556e6976657273697479",
  "source": "pragma solidity ^0.5.0;\r\n\r\ncontract CertificateList {\r\n    mapping(uint => Data) public certificates;\r\n    uint public certificateCount;\r\n    address owner;\r\n\r\n    constructor() public {\r\n        owner = msg.sender;\r\n        //default\r\n        createCertificate(\"George\", \"Bachelor of Computer Engineering\",\r\n                                \"Dr. Babasaheb Ambedkar Technological University\", \"First Class With Distinction\"); //Default\r\n    }\r\n\r\n    modifier _ownerOnly() {\r\n      require(msg.sender == owner, \"Not authorized.\");\r\n      _;\r\n    }\r\n\r\n    struct Data {\r\n        string name;\r\n        string branch;\r\n        string grade;\r\n        string college;\r\n    }\r\n\r\n    function createCertificate\r\n    (string memory _name, string memory _branch, string memory _college, string memory _grade)\r\n    public\r\n    _ownerOnly\r\n    {\r\n        certificateCount++;\r\n        certificates[certificateCount] = Data(_name, _branch, _grade, _college);\r\n    }\r\n}",
  "sourcePath": "D:\\ethereum\\certificatecontractapp\\contracts\\CertificateList.sol",
  "compiler": {
    "name": "solc",
    "version": "0.5.16+commit.9c3226ce.Emscripten.clang"
  },
  "schemaVersion": "3.2.0",
  "updatedAt": "2020-07-18T17:33:31.316Z",
  "networkType": "ethereum",
  "devdoc": {
    "methods": {}
  },
  "userdoc": {
    "methods": {}
  }
}